:020000040000FA
:020000000328D3
:040002000034003492
:0A0006002C202020F001F101F10F81
:100010000C28F00F0C28192000300F20072838205A
:10002000382038203820382038203820382019202F
:10003000080020008E1B02328E1708008E13080065
:1000400020008E013E00CE01200093012300990183
:1000500020309A0097010800310060308D00003098
:100060008F000030910006309300003092000800AD
:10007000FA30A0003E20A00B3A2808004230F200DF
:08008000F20B4028000008000B
:020000040001F9
:02000E00EC3FC5
:02001000FF3FB0
:020012009F3F0E
:02001400FF1FCC
:02001600FF3FAA
:00000001FF
